000001PPAO FRANCES KG        0002190000                                                                                                                              0000
000003UCAFE COADO 50 ML      0000450000                                                                                                                              0000
000004UCAFE ESPRESSO 50ML    0000850000                                                                                                                              0000
000005UCAFE C/ LEITE 200ML   0000790000                                                                                                                              0000
000009UPAO FRANCES/MANTEIGA F0000550000                                                                                                                              0000
000010PPAO FORMA S/CASCA     0007290005@25g (1 fatia)                      000790004017000057003000040000000000000000000000000000000800032*****0000*****00000000000000000
000011USUCO DE LARANJA UN    0001150000                                                                                                                              0000
000012UPAO DE QUEIJO UN      0000690000                                                                                                                              0000
000015PPAO CASEIRO S/ LACTOSE0003490004@60g (2 fatias)                     001500007030000100004200056000120002000000000000000000000800032*****0000*****00000000000000000
000019PPAO DE MINUTO KG      0004190006@50g (1 1/2 und)                    001500007027000090003800051000250005000060003000000000000600024*****0000*****00000000000000000
000020PPAO DE FORMA          0003490005@50g (2 fatias)                     000720004000910003000310004000960017001100050000000000000000000*****0000*****00000042000020000
000026UBAGUETE NATURAL UND   0000800000                                                                                                                              0000
000027UBAGUETE COM QUEIJO    0001030000                                                                                                                              0000
000029UBAGUETE COM GERGELIM U0001030000                                                                                                                              0000
009197UTARTINE DE PARMA UND  0001790000                                                                                                                              0000
000033PMINI LANCHE KG        0004980004@50g (1 und)                        001500007026000087003400045000350006000060003000000000000600024*****0000*****00000000000000000
000034UPAO FRANCES/HAMB/SALAD0002450000                                                                                                                              0000
000035PPAOZ BATATA S/ RECHEIO0006290000                                                                                                                              0000
000037PPAO DE CACHORRAO KG   0004990004@60g (2 und)                        001500007029000097004300057000150003000040002000000000001600064*****0000*****00000000000000000
000038PPAO DE HAMBURGUER KG  0003990004@45g (1/2 und)                      001500007029000097004300057000150003000040002000000000000600024*****0000*****00000000000000000
000040PPAO ITALIANO KG       0005090004                                                                                                                              0000
000043PESFIHINHA DE CARNE KG 0008190002@80g = 4 und                        003420017005500018001500020000710013000180008000000000000270011*****0000*****00000282000120000
000044PMINI CROISSANT NATURAL0009790000                                                                                                                              0000
000045PMINI CROISSANT PRES/QU0008750002@101g = 04 und                      003040015002700009000500007002000036000800036000000000000100004*****0000*****00000297000120000
000046PMINI FRANCES KG       0002190000                                                                                                                              0000
000047PMINI FRANCES C/GERGELI0002690000                                                                                                                              0000
000048PPAOZINHO TEMPERADO KG 0007990002@86g = 05 und                       000780004000170001000510007000570010000250011000000000000000000*****0000*****00000167000070000
000051PBISCOITO POLVILHO NAT.0010990013@20 g = 6und                        000480002000800003000000000000000000000000000000000000000000000*****0000*****00000108000040000
000053PFARINHA DE ROSCA      0003990011                                                                                                                              0000
000056UMASSA DE PIZZA 100G   0000750005@56g (1 fatia)                      001500007025000083005000067000300005000100005000000000001000040*****0000*****00000000000000000
000058PROSQUINHA JAPONESA    0005790004@44g (1 und)                        001500007024000080006000080000340006000140006000000000000600024*****0000*****00000000000000000
000060PTORRADA C/ALHO KG     0004950016@30g (4 unidades)                   001800009009200031002000027000700013000140006000000000000600024*****0000*****00000000000000000
000061PTORRADA C/ OREGANO KG 0005790016@30g (5 unidades)                   001800009013000043002000027001000018000100005000000000002000080*****0000*****00000000000000000
000066PCREME DE LEITE FRESCO 0006500000                                                                                                                              0000
000067PCHANTILLY KG          0009250000                                                                                                                              0000
000075PBROINHA DE FUBA KG    0008790016@40g (2 unidades)                   001500007025000083002700036000420008000080004000000000000000000*****0000*****00000000000000000
000076PCASEIRINHO KG         0004990004@67g (1 1/2 und)                    001500007029000097004800064000120002000000000000000000001500060*****0000*****00000000000000000
000078UCROISSANT NATURAL UN  0000930002                                                                                                                              0000
000080UCROISSANT PRESUNTO E Q0001090000                                                                                                                              0000
000085PGRAVATINHA DE QUEIJO K0009690001@98g = 05 und                       002860014002500008000510007001800033000780035000000000000100004*****0000*****00000252000100000
000086ULANCHE P PERU NO PAO D0001990000                                                                                                                              0000
000087UPIZZA CALABRESA 700G  0003490003                                                                                                                              0000
009730PTORTA MOUSSE CHOC/MORA0009850000                                                                                                                              0000
001933UCROQUE MONSIEUR       0002150000                                                                                                                              0000
002562UBEIRUTE DE FRANGO - UN0004150000                                                                                                                              0000
000089PTORRADA DE PAO INTEGRA0005790016@25 g = 10 unid                     001150006010000033000100001000280005000000000000000000000100004*****0000*****00000040000020000
000090PLANCHINHO DE FRANGO MI0009000002                                                                                                                              0000
000091PLANCHINHO TOM SECO MIN0006500002@40g = 1 unid                       001450007001500005000330004000900016000250011000000000000100004*****0000*****00000184000080000
000093PMINI PIZZA SEMI FOLHAD0009750002@91g = 04 un                        001330007002300008000370005001600029000700032000000000000120005*****0000*****00000241000100000
000100PPAOZINHO PRESTIGIO KG 0005000004@50g (2 und)                        001460007025000083003000040000300005000200009000000000000700028*****0000*****00000000000000000
000101PSALGADO ASSADO DE FRAN0004650002@porção 150 g = 01 und              001000005000600002001400019000200004000000000000000000000100004*****0000*****00000066000030000
000106USONHO DE CREME UN     0000820002@80 g = 01 und                      002060010003000010000260003000300005000140006000000000000100004*****0000*****00000058000020000
000107UPAO DE FORMA INT/QJO B0001750000                                                                                                                              0000
009131PBRIOCHE DE LARANJA KG 0005490003@40 g = 01 und                      001160006002000007000230003000300005000210010000000000000000000*****0000*****00000010000000000
002564UQUEIJO QUENTE LIGHT   0001890000                                                                                                                              0000
003962UCAPUCCININHO 50 ML    0000690000                                                                                                                              0000
002504UCROQUE MADAME         0002350000                                                                                                                              0000
003793UBACON BURGER UN       0003190000                                                                                                                              0000
004589UCHOCOLATINHO QTE 50ML 0000690000                                                                                                                              0000
005858UMILK SHAKE DE NUTELLA 0002950000                                                                                                                              0000
000115PTORTA MARTA ROCHA KG  0008250005                                                                                                                              0000
000118PTORTA DE MORANGO/SUSPI0006850003                                                                                                                              0000
000119PTORTA DE MORANGO C/ GE0006450003                                                                                                                              0000
000124PTARTELETE DE MORANGO K0008250003                                                                                                                              0000
000128PBOLO BRIGADEIRO KG    0006950000                                                                                                                              0000
000129PQUINDAO KG            0006450005@50g = 1pedaço                      001330007015000050003000040000700013000300014000000000000000000*****0000*****00000000000000000
000130PPUDIM DE LEITE CONDENS0007450007@56g=1 pedaço                       001000005012000040005000067000400007000200009000000000000000000*****0000*****00000000000000000
000131PPAO DE LO BRANCO  KG  0004950000                                                                                                                              0000
000133UBOMBOM DE COCO UN     0000690000                                                                                                                              0000
000134UBOMBOM DE MORANGO UN  0000990000                                                                                                                              0000
008296PMINI CHURROS KG       0006990001                                                                                                                              0000
005462USUCO DRENAGEM         0001490000                                                                                                                              0000
005463USUCO ALTO ASTRAL      0001490000                                                                                                                              0000
005476USMOOTHIE TROPICAL     0002490000                                                                                                                              0000
005424UTAPIOCA C/ OVOS MEXIDO0002450000                                                                                                                              0000
005437USALADA DE FRUTAS C/ IO0002290000                                                                                                                              0000
009827UPAO CASEIRO C/ MANTEIG0000690000                                                                                                                              0000
000137UBEIJINHO UN           0000690000                                                                                                                              0000
000139UOURICO UN             0000890000                                                                                                                              0000
000142PBOLO DE CHOCOLATE KG  0005690006@40g (1 pedaço)                     001000005013000043001500020000500009000100005000000000000000000*****0000*****00000000000000000
000154UTARTELETE DE LIMAO UN 0001250000                                                                                                                              0000
000159PTORTA FRANGO  KG      0007290000                                                                                                                              0000
000160PTORTA PALMITO  KG     0007290000                                                                                                                              0000
000161UPAO FRANCES/SALAME/QJO0001750000                                                                                                                              0000
000163PMASSA FOLHADA - KG    0003000000                                                                                                                              0000
009132UCOFFEE CAKE UND       0001450000                                                                                                                              0000
008787PTARTELETE FIT DE LIMAO0009500004@60 g = 01 und                      001490007001300004000260003000880016000680031000000000000270011*****0000*****00000023000010000
009138PBOLO CHOC COM BRIGADEI0006690004@40 g = 01 fatia                    001010005001300004000180002000440008000170008000000000000100004*****0000*****00000058000020000
009828UPAO CASEIRO C/ CATUPIR0001450000                                                                                                                              0000
009830UBRIOCHE C/ CATUPIRY E 0001450000                                                                                                                              0000
009832UBAURU DA CASA         0001950000                                                                                                                              0000
009833UMISTO QUENTE NO PAO CA0001950000                                                                                                                              0000
009834UMISTO QUENTE DE MORTAD0002190000                                                                                                                              0000
009835UBRUNCH NA MESA        0005290000                                                                                                                              0000
000176USUCO DE LARANJA+1 POLP0001040000                                                                                                                              0000
000189UBEIJINHO CENTO        0015500000                                                                                                                              0000
000192UBRIGADEIRO CENTO      0015500000                                                                                                                              0000
000194UCASADINHO CENTO       0019000000                                                                                                                              0000
000195UOLHO DE SOGRA CENTO   0022000000                                                                                                                              0000
000197UBOMBOM DE COCO CENTO  0027500000                                                                                                                              0000
000202UOURICO CENTO          0024000000                                                                                                                              0000
008668PTORTA DE L NINHO COM N0007750000                                                                                                                              0000
009139PESFIHINHA INT DE CARNE0010250002@30 g = 01 und                      000600003000440001000660009000160003000050002000000000000070003*****0000*****00000073000030000
009142PBOLO DE PACOCA KG     0005590003@40 g = 01 fatia                    000860004001300004000150002000340006000100005000000000000100004*****0000*****00000082000030000
002318U+ PORCAO DE FILE MIGNO0002290000                                                                                                                              0000
009836UAMERICAN BREAKFAST    0003890000                                                                                                                              0000
009837UCOMBO FIT 3           0002190000                                                                                                                              0000
009838UCOMBO FIT 4           0003890000                                                                                                                              0000
009839UOMELETE FILE MIGNON/ M0003150000                                                                                                                              0000
000204UCAMAFEU CENTO         0028500000                                                                                                                              0000
000205UBOMBOM DE MORANGO CENT0032000000                                                                                                                              0000
000207UBOLO GELADO CENTO     0025000000                                                                                                                              0000
000208UBOLINHA DE QUEIJO CENT0012000000                                                                                                                              0000
000209UMINI COXINHA DE FRANGO0012000000                                                                                                                              0000
000210UMINI RISOLES DE CARNE 0012000000                                                                                                                              0000
000212UMINI QUIBE CENTO      0014000000                                                                                                                              0000
000213UESFIHINHA CENTO       0018000000                                                                                                                              0000
000214UEMPADINHA DE FRANGO CE0021000000                                                                                                                              0000
000215UEMPADINHA DE PALMITO C0021000000                                                                                                                              0000
000217UFOLHADINHO DE FRANGO C0015000000                                                                                                                              0000
000218UFOLHADINHO DE PALMITO 0015000000                                                                                                                              0000
000219UPAO FRANCES GRATINADO 0000580000                                                                                                                              0000
000220PBOMBINHA PARA RECHEAR 0009990000                                                                                                                              0000
002856UQUICHE DE BROCOLIS CNT0023000000                                                                                                                              0000
009840UOMELETE C/ MOZARELA E 0002250000                                                                                                                              0000
009841UOMELETE C/ PRESUNTO/ M0002450000                                                                                                                              0000
009842PESFIHINHA TURCA KG    0008250002@Porção 120g = 4 und                002970015003100010002000027000800015000200009000000000000120005*****0000*****00000040000020000
009843UPAULISTINHA           0003350000                                                                                                                              0000
000227PSTRUDEL DE MACA KG    0004350003@100 g = 1/3 und                    001260006003000010000270004000170003000000000000000000000100004*****0000*****00000029000010000
000228PMINI PAO HAMBURGUER KG0004620004@40g (1 und)                        001500007026000087003800051000130002000030001000000000000000000*****0000*****00000000000000000
000229PMINI HAMBURGUER C/GERG0004620004@50g (1 und)                        001500007027000090004500060000250005000060003000000000000800032*****0000*****00000000000000000
000230PMINI CACHORRAO KG     0004980004@56g (2 und)                        001500007029000097004300057000150003000040002000000000000600024*****0000*****00000000000000000
000231PMINI PAO DE QUEIJO KG 0007490000@15 g - 05 un                       000450002000610002000000000000210004000040002000000000000100004*****0000*****00000071000030000
000232UPAO FRANCES INTEGRAL L0000470000                                                                                                                              0000
000233UPAO DE FORMA INTEGRAL 0000580000                                                                                                                              0000
000234UCHOCOT ARTESANAL 500G 0002300020@25 g = 01 fatia                    001000005001300004000180002000400007000210010000000000000100004*****0000*****00000070000030000
000236UPAO DE QUEIJO/MANT CHA0000890000                                                                                                                              0000
000237ULANCHE NATURAL DE ATUM0001950002@190g (1 und)                       002890014046000153012000160001600029000300014000000000005000200*****0000*****00000000000000000
000238ULANCHE NATURAL DE FRAN0001950002@400 g = 1 und                      003200016003500012002200029001500027000200009000000000001300052*****0000*****00000454000190000
000250UMINI FRANCES/MANTEIGA 0000430000                                                                                                                              0000
000251UMINI FRANCES/QJO (MINI0000990000                                                                                                                              0000
000252UMISTO QUENTE UN       0001650000                                                                                                                              0000
000255UPAO FRANCES/OVO UN    0000990000                                                                                                                              0000
000256UPAO DE FORMA/MANT FRIO0000410000                                                                                                                              0000
000257UPAO FRANCES/MORTADELA 0001150000                                                                                                                              0000
009844UAMERICANO             0001950000                                                                                                                              0000
000260UPAO FRANCES/QUEIJO (QU0001490000                                                                                                                              0000
000263USUCO DE ABACAXI UN    0001150000                                                                                                                              0000
000264USUCO DE ACEROLA UN    0001150000                                                                                                                              0000
000269USUCO DE MAMAO UN      0000990000                                                                                                                              0000
000271USUCO DE MELAO UN      0000990000                                                                                                                              0000
000272USUCO DE MORANGO UN    0001390000                                                                                                                              0000
000274UCAPUCCINO 200 ML      0001250000                                                                                                                              0000
000277UCAFE EXPRESSO/CHANT 100000400000                                                                                                                              0000
000278UCAFE ESPRESSO/LEITE 200001250000                                                                                                                              0000
000287UTODDY GELADO COPO     0001050000                                                                                                                              0000
000291UVITAMINA UN           0001550000                                                                                                                              0000
000293UCAFE EXPRESSO/CHANT 200000950000                                                                                                                              0000
000299PTARTELETE P/FATIAR KG 0008500000                                                                                                                              0000
009685UENROLADO PRESUNTO/QUEI0001150000                                                                                                                              0000
009845UHAMBURGUER ESPECIAL DA0003490000                                                                                                                              0000
009846UHAMBURGUER DO CHEFF   0003190000                                                                                                                              0000
009847UBEIRUTE DE MIGNON C/ C0005150000                                                                                                                              0000
009848UBEIRUTE DE MIGNON C/ R0005350000                                                                                                                              0000
009198UTARTINE CAPRESE UN    0001790000                                                                                                                              0000
000318PEMPADINHA DE FRANGO KG0006370002@96g = 03 und                       001680008002100007001000013000480009001000045000000000000110004*****0000*****00000224000090000
000319PBOLINHA DE QUEIJO KG  0006700001@96 g = 04 un                       001680008001800006000830011000710013000380017000000000000140006*****0000*****00000356000150000
000320PMINI COXINHA DE FRANGO0006230002@97 g = 04 un                       001690008002600009000780010000390007000220010000000000000140006*****0000*****00000313000130000
000322PMINI QUIBE KG         0009390002@100g = 04 und                      001410007001900006001100015000220004000070003000000000000060002*****0000*****00000314000130000
009140UESFIHA INTEGRAL FIT UN0001450005                                                                                                                              0000
007072UBANOFFEE FIT UN       0001650008                                                                                                                              0000
009849ULANCHE RUA  ARTHUR THO0004350000                                                                                                                              0000
009850UTIRADENTES            0003850000                                                                                                                              0000
009851UGETULIO VARGAS        0004350000                                                                                                                              0000
009852UBASILIO SATCHUK       0004350000                                                                                                                              0000
009853UCASQUINHA BAUNILHA C/ 0000300000                                                                                                                              0000
009607PTORTA NINHO /NUTELLA K0010250000                                                                                                                              0000
002354PCHANTILLY KG          0005500000                                                                                                                              0000
000337UCOLOMBA PASCOA GOTA CH0003990020                                                                                                                              0000
000338PFOLHADINHO DE FRANGO K0008490001@72g = 04 und                       002140011002000007000350005001300024000570026000000000000090004*****0000*****00000184000080000
000339PFOLHADINHO DE PALMITO 0008490001@77g = 05 un                        002270011002200007000270004001400025000610028000000000000100004*****0000*****00000247000100000
000341PMINI FRANCES C/PARMESA0003100000                                                                                                                              0000
000343PQUEIJO PRATO BATAVO LI0002690000                                                                                                                              0000
000345PSALAME MILANES SADIA  0012250003                                                                                                                              0000
000347PQUEIJO PRATO KG       0008590004                                                                                                                              0000
000350PQUEIJO MARANATA MAGRO 0001950000                                                                                                                              0000
000351PPRESUNTO COZIDO SADIA 0004990004@40g = 3 fatias                     000370002000000000000680009000100002000040002000000000000000000*****0000*****00000268000110000
000354PMORTADELA MARBA KG    0003290004@40g = 2 fatias                     001180006000260001000610008000930017000180008000000000000000000*****0000*****00000778000320000
000366PQUEIJO GOUDA BATAVO   0001790000                                                                                                                              0000
000368PQUEIJO MINAS PADRAO CR0010490000                                                                                                                              0000
000370PBOLO DE FUBA          0005590006@30 g ( 01 pedaço)                  000960005012000040001400019000500009000100005000000000000000000*****0000*****00000000000000000
000371PSALAME ITALIANO SEARA 0009990003                                                                                                                              0000
000373PBOLO DE CENOURA KG    0005590004@30 g = 01 fatia                    001000005001700006000150002000320006000100005000000000000100004*****0000*****00000080000030000
000167PQUICHE LORRAINE KG    0007950000                                                                                                                              0000
009854UCAFE TRUFADO C/ NUTELL0002890000                                                                                                                              0000
009855UCHOCOLATE QUENTE SUICO0002290000                                                                                                                              0000
009856UCOFFEE SHAKE          0002850000                                                                                                                              0000
009862UESFIHA TURCA UND MBP  0001450000                                                                                                                              0000
000374PQUEIJO PRATO FRIGAO KG0004950004                                                                                                                              0000
000375USUCO DE LARANJA+ 2 POL0001690000                                                                                                                              0000
000377USUCO DE LIMAO UN      0001150000                                                                                                                              0000
000378USUCO DE UVA UN        0001250000                                                                                                                              0000
000384UMINI PANETONE 90G     0001090020@20g (1 fatia)                      000580003011000037000900012000120002000050002000000000000000000*****0000*****00000000000000000
000406PQUEIJO MARANATA FRESCO0002580000                                                                                                                              0000
000408PPEITO DE PERU DEF  SAD0009250003@40g = 3 fatias                     000440002000150000000800011000060001000000000000000000000000000*****0000*****00000281000120000
000411UPAO DE QUEIJO/QUEIJO U0000990000                                                                                                                              0000
000437PBISCOITO POLV /GERGELI0010990013@15g (5 unidades)                   001000005013000043000600008000520009000070003000000000000000000*****0000*****00000000000000000
002121PPAO 100% INTEGRAL KG  0004000005@50                                 000980005001800006000300004000160003000000000000000000000300012*****0000*****00000006100000000
009864UCROISSANT CHOCOLATE UN0001050002@120g = 1 Und                       005100025005800019000700009002700049001400064000000000000220009*****0000*****00000185000080000
000683UCOLHER DESC SOBREMESA 0001600000                                                                                                                              0000
009915PBROINHA COCO/QUEIJO KG0008790006@Porção de 140g = 6 und             005880029006800023000770010003200058001400064000000000000220009*****0000*****00000440000180000
009919UEMBALAGEM COMPLETA PAR0002000000                                                                                                                              0000
009920UEMBALAGEM COMPLETA PAR0000001000                                                                                                                              0000
009925PBOLO ROMEU E JULIETA K0006290003@50g = 1 fatia                      001280006002200007000250003000330006000240011000000000000000000*****0000*****00000042000020000
009926PPAO DE ABOBORA E GENGI0004390005@50g= 1 fatia                       001530008002600009000310004002200040000060003000000000000100004*****0000*****00000000000000000
009930USMOOTHIE MORANGO/BANAN0001550090                                                                                                                              0000
009928USUCO MARACUJA/MAGA/CAM0001250090                                                                                                                              0000
000442UPAO SEM GLUTEN LANCHON0000950000                                                                                                                              0000
000444PFIOS DE OVOS KG       0013000000                                                                                                                              0000
000447UPAO FRANCES/OVO/HAMB/M0001990000                                                                                                                              0000
000451PPEITO DE PERU DEF. S/ 0009950003                                                                                                                              0000
000452PQUEIJO MINAS PADRAO FR0004600000                                                                                                                              0000
000454PMORTADELA CERATTI KG  0009990004                                                                                                                              0000
000457UPAO FRANCES FOLHADO LA0000630000                                                                                                                              0000
009240UBARRINHA CHOCOLATE 70%0000750150@20 g = 01 und                      000980005000660002000230003000690013000280013000000000000340014*****0000*****00000000000000000
002169PLINGUICA CALABRESA KG 0000001000                                                                                                                              0000
001567PMANTEIGA SEM SAL KG   0000001000                                                                                                                              0000
000013ULEITE INTEGRAL SAQ.   0000795000                                                                                                                              0000
000002ULEITE SAQUINHO LITRO  0000645000                                                                                                                              0000
000426UMARG QUALY CREMOSA C/ 0000990000                                                                                                                              0000
000627UCREME DE LEITE KG     0000001000                                                                                                                              0000
005302PPEITO PERU DEF. SEARA 0009950000                                                                                                                              0000
009932USMOOTHIE BANANA/DOCE D0001550090                                                                                                                              0000
009935USUCO DE LARANJA/MELAO/0001450090                                                                                                                              0000
009937USUCO KIWI/MELAO/AGUA D0001950090                                                                                                                              0000
009939USUCO BETERRABA/CENOURA0001250090                                                                                                                              0000
007865ULANCHINHO ALVARES DE A0000890000                                                                                                                              0000
000487USANTOS DUMONT         0003850000                                                                                                                              0000
000493UICED COFFEE 350ML     0001850000                                                                                                                              0000
000494USUCO DE ABACAXI/HORTEL0001250000                                                                                                                              0000
000496USUCO COM 2 POLPAS UN  0001420000                                                                                                                              0000
000498UCHOCOLATE QTE 300ML   0000950000                                                                                                                              0000
000499UCHOCOLATE QTE/CONHAQUE0001200000                                                                                                                              0000
000500UCHOCOLATE QTE/CONH/CHA0001050000                                                                                                                              0000
000501UMILK SHAKE DE CHOCOLAT0002550000                                                                                                                              0000
000502UCHOCOLATE QTE/CHANT 200000890000                                                                                                                              0000
000503UCAFE VIENENSE 350 ML  0002250000                                                                                                                              0000
000506UCAFE COADO 200 ML     0000850000                                                                                                                              0000
000507UCAFE C/LEITE 100 ML   0000250000                                                                                                                              0000
000508UMINI FRANCES C/PRE/QJO0000890000                                                                                                                              0000
000509PTORTA SENSACAO KG     0008250004                                                                                                                              0000
003634UQUICHE DE CALABR C/ AL0023000000                                                                                                                              0000
005132ULANCHE BAGUETE 60CM GU0009000000                                                                                                                              0000
007841PNINHO DE QUEIJO C/ AZE0010290000                                                                                                                              0000
007843PNINHO DE FRANGO C/ CAT0010290000                                                                                                                              0000
007522ULANCHINHO JOSE DE ALEN0000790000                                                                                                                              0000
008118UBRIOCHE C/ PR ROYALE, 0000890000                                                                                                                              0000
000511PPAO DE TORRESMO KG    0004400003                                                                                                                              0000
000514PPAO DE CENOURA KG     0004650004@60g (2 fatias)                     001500007024000080004300057000370007000070003000000000001600064*****0000*****00000000000000000
000519PTORRADA PAO FRANCES KG0005500013@25g (10 unidades)                  001500007014200047002000027000000000000000000000000000000100004*****0000*****00000000000000000
000520PQUEIJO MARANATA MUSSAR0002980000                                                                                                                              0000
000522UPAO FRANCES/QJO/OVO UN0001390000                                                                                                                              0000
000524UPAO FRANCES/PEITO PERU0001650000                                                                                                                              0000
000533PEMPADINHA DE PALMITO K0006390001@74 g = 02 un                       001040005001900006000300004000150003001000045000000000000100004*****0000*****00000265000110000
000540UPAO DE FORMA INT/MANT 0000790000                                                                                                                              0000
000541UMINI CHOCOTONE 90G    0001090015@25 g = 01 fatia                    001000005001300004000180002000400007000210010000000000000100004*****0000*****00000070000030000
000544UPAO DE FORMA INT/Q.PRA0001150000                                                                                                                              0000
008956UMOLHO PROVENCE P.MEL 30002600090                                                                                                                              0000
008711PNINHO DE CHEDDAR C/ BA0010290001                                                                                                                              0000
008890PQUICHE CALABR C/ ALHO 0007950000                                                                                                                              0000
008957UMOLHO 4 QUEIJOS P MEL 0002600090                                                                                                                              0000
009439PPAO F NAT CALABRESA KG0004390004@50g                                000650003000600002000280004000170003000110005000000000000100004*****0000*****00000152000060000
008437ULANCHINHO ERICO VERISS0000690000                                                                                                                              0000
008834ULANCHINHO GUIMARAES RO0000790000                                                                                                                              0000
008154ULANCHINHO CARLOS DR DE0000790000                                                                                                                              0000
008861ULANCHINHO RUBEM DA FON0000790000                                                                                                                              0000
008867ULANCHINHO MANOEL BANDE0000750000                                                                                                                              0000
000545PPAO SEMI FOLH CREME/CA0005490004@55g (1 und)                        001500007014000047003000040000260005000090004000000000000900036*****0000*****00000000000000000
000606UACUCAR REFINADO KG    0000790000                                                                                                                              0000
000823PUVA PASSAS KG         0003450030                                                                                                                              0000
000867PQUEIJO CHEDDAR KG     0007950000                                                                                                                              0000
000871PCASTANHA DO PARA KG   0008950060@10g (1 colher de sopa)             000640003001200004001300017000600011000220010000000000000000000*****0000*****00000000000000000
000876UGELO PCTE 5KG         0001990000                                                                                                                              0000
000984PPO DE CAFE TREVIOLO KG0008000000                                                                                                                              0000
000995PQUEIJO MINAS PADRAO LA0005950000                                                                                                                              0000
001522UREQUEIJAO CATUPIRY TRA0001190000                                                                                                                              0000
006291URECHEIO PARA QUIBE FIT0000001000                                                                                                                              0000
009943UBOLO MACA/CANELA MFF U0001750090                                                                                                                              0000
009944UBROWNIE KIDS UD       0002490001                                                                                                                              0000
009945UHAMBURGUER FRANGO MFF 0001950090                                                                                                                              0000
000292UTORTINHA DE BACALHAU C0025000000                                                                                                                              0000
007768UTORTINHA SABLE BRIGADE0019000000                                                                                                                              0000
007769UTORTINHA SABLE DOCE DE0018000000                                                                                                                              0000
007700UMINI PASTEL DE BELEM C0023000000                                                                                                                              0000
008327UTORTINHA FRANGIPANE CN0022000000                                                                                                                              0000
008710UTORTINHA SABLE DE MACA0019000000                                                                                                                              0000
008808PPAO F NAT ABOB/BACON K0003520003                                                                                                                              0000
001071PFERMENTO FRESCO KG    0002600000                                                                                                                              0000
001087UMISTO QUENTE NO PAO DE0001990000                                                                                                                              0000
001122PFARINHA DE TRIGO ANACO0000800000                                                                                                                              0000
001133PPRESUNTO COZIDO SEARA 0003490004                                                                                                                              0000
001139PRICOTA KG             0003990000                                                                                                                              0000
001163PQUEIJO PROVOLONE KG   0005990003                                                                                                                              0000
001262USUCO DE MARACUJA UN   0001150000                                                                                                                              0000
001263UMILK SHAKE DE MORANGO 0002150000                                                                                                                              0000
006292URECHEIO DE FRANGO P/ P0000001000                                                                                                                              0000
008951ULASANHA BOLONHESA P ME0002850000                                                                                                                              0000
008952USTROG. MIGNON P.MEL 500006300000                                                                                                                              0000
008953USTROG FGO/ARROZ  P.MEL0002850000                                                                                                                              0000
009953UCROISSANT DE AMENDOAS 0000001000                                                                                                                              0000
009955PFOCACCIA TOM CER E AZE0004450003@50g (1 fatia)                      000250001000080000000000000000240004000000000000000000000000000*****0000*****00000031000010000
009968UMINI MOUSSE FIT CHOCOL0000590000                                                                                                                              0000
005884ULANCHINHO CECILIA MEIR0000790000                                                                                                                              0000
005820ULANCHINHO OLAVO BILAC 0000790000                                                                                                                              0000
007363ULANCHINHO MONTEIRO LOB0000890000                                                                                                                              0000
007845ULANCHINHO CLARICE LISP0000690000                                                                                                                              0000
007854ULANCHE BAGUETE 60CM - 0009500000                                                                                                                              0000
001288UMINI PIZZA SEMI FOLHAD0000001040                                                                                                                              0000
001295UCOXINHA DE FRANGO UN  0000990000                                                                                                                              0000
001297UEMPADA DE FRANGO UN   0001050000                                                                                                                              0000
001298UEMPADA DE PALMITO UN  0001050000                                                                                                                              0000
001300UESFIHA DE CARNE UN    0001350000                                                                                                                              0000
001301UFOLHADO DE FRANGO UN  0001450000                                                                                                                              0000
001302UFOLHADO DE PALMITO UN 0001450000                                                                                                                              0000
001304URISOLES DE CARNE UN   0001350000                                                                                                                              0000
001308UECLAIR DE CREME UN    0001350000                                                                                                                              0000
001309UECLAIR DE CHOCOLATE UN0001350000                                                                                                                              0000
001312UBOMBOM DE CEREJA CENTO0010000000                                                                                                                              0000
001313UBRIGADEIRO UN         0000750000                                                                                                                              0000
001315UCAMAFEU C/CHOC BRANCO 0001050000                                                                                                                              0000
008954UMOLHO BOLONHESA P.MEL 0002350090                                                                                                                              0000
008955UPANQUECA FRANGO/QJO P 0002850090                                                                                                                              0000
008947UPANQ CARNE P MEL 300G 0002850000                                                                                                                              0000
008948UPANQ CARNE /QJO P.MEL 0002850000                                                                                                                              0000
008949UPANQ FGO/CAT  P.MEL 300002850000                                                                                                                              0000
009818UBOMBOM 70% C/ FRUTAS S0000850040@30g = 4 und                        001510008001200004000290004000980018000530024000000000000400016*****0000*****00000000000000000
007856ULANCHE BAGUETE 60CM - 0009000000                                                                                                                              0000
001322UPUDIM DE LEITE COMDENS0001350000                                                                                                                              0000
001323UQUINDIM UN            0001250000                                                                                                                              0000
001334UVITASUCO              0001550000                                                                                                                              0000
001335UAPFELSTRUDEL UND      0001350000                                                                                                                              0000
001339UPAO ITALIANO REDONDO C0000001040                                                                                                                              0000
001347UCAPUCCINO GELADO UN   0002590000                                                                                                                              0000
006265UPORCAO FRANGO DESFIADO0000001000                                                                                                                              0000
008950UPANQ ESPINAFRE/QJO P.M0002850000                                                                                                                              0000
006686UQUICHE DE CALABRESA C/0001450002@80g = 1 unid                       002290011002700009000400005004300078000300014000000000000100004*****0000*****00000009000000000
009246PSEQUILHO DE LEITE NINH0009690030@30 g = 6 und                       001020005001300004000090001000500009000110005000000000000000000*****0000*****00000011000000000
009247PCASADINHO DE AVELA KG 0011000020@80g = 4 unid                       001670008002200007000270004000720013000210010000000000000000000*****0000*****00000450000190000
008201ULANCHINHO PAULO LEMINS0000750000                                                                                                                              0000
008328ULANCHE BAGUETE 60CM - 0009500000                                                                                                                              0000
008335ULANCHINHO LUIS DE CAMO0000650000                                                                                                                              0000
008410ULANCHINHO CASTRO ALVES0000690000                                                                                                                              0000
008412ULANCHINHO MACHADO DE A0000750000                                                                                                                              0000
008435ULANCHINHO MARIO QUINTA0000750000                                                                                                                              0000
008879ULANCHE BAGUETE 60CM - 0009000000                                                                                                                              0000
002841PCAKETONE KG           0007990004                                                                                                                              0000
001358PBOLACHA DE NATA KG    0011500030@25g (5 unidades)                   001000005017000057000700009000310006000060003000000000000000000*****0000*****00000000000000000
001359PBOMBINHA DOCE DE LEITE0011090010@38g (2 unidades)                   001000005013000043001300017000460008000260012000000000000000000*****0000*****00000000000000000
001360PGOIABINHA KG          0010790017@22g (4 unidades)                   001000005015000050001200016000400007000110005000000000000000000*****0000*****00000000000000000
001459PDAMASCO KG            0010400120@25g (3 unidades)                   000600003015000050000800011000000000000000000000000000001800072*****0000*****00000000000000000
001495PQUEIJO FRESCO INDEC KG0004490000                                                                                                                              0000
001535UCHA QUENTE UN         0000890000                                                                                                                              0000
001554USALADA DE FRUTAS UN   0001590000                                                                                                                              0000
001559PPAO DE LO DE CHOCOLATE0005750000                                                                                                                              0000
008680UBARRA BRANCA COOKIE / 0009290090@18g = 1/3 quadrado                 001100005001000003000100001000550010000280013000000000000100004*****0000*****00000020000010000
008681PTORTA DE CH / MORANGO 0008500000                                                                                                                              0000
009249PBOLACHINHA 50% CACAU C0011000020@30 g = 03 und                      001150006001400005000160002000580011000370017000000000000080003*****0000*****00000017000010000
007085USHAKE PRE TREINO MFF U0001450090                                                                                                                              0000
008936ULANCHE BAGUETE 60CM - 0009900000                                                                                                                              0000
009567ULANCHE BAGUETE 60CM - 0009900000                                                                                                                              0000
007996ULANCHE BAGUETE 60CM - 0009900000                                                                                                                              0000
009971UFOCACCIA FIT MFF UND  0001650090                                                                                                                              0000
009957PBISC. POLVILHO GOURMET0011990013@20g (08 und)                       000740004000930003000110001000310006000000000000000000000060002*****0000*****00000057000020000
009284PCROQUETE CALABRESA KG 0008990001@50g (2und)                         002090010001800006000160002000160003000410019000000000000130005*****0000*****00000232000100000
009975PTORTA SNICKERS KG     0008250000                                                                                                                              0000
001592UCROISSANT PRESUNTO/QJO0000001040                                                                                                                              0000
001594UMINI CROISSANT PRES/QJ0000001040                                                                                                                              0000
001598UPAOZINHO TEMPERADO CON0000001040                                                                                                                              0000
001620PPAOZINHO COM CREME KG 0006390003@50g (1 und)                        001500007029000097004700063000150003000050002000000000000000000*****0000*****00000000000000000
001621PTORTA P/FATIAR KG     0008500000                                                                                                                              0000
001629UTARTELETE DE MORANGO U0001450000                                                                                                                              0000
001631ULEITE 200 ML          0000480000                                                                                                                              0000
001632UTRUFA NATURAL UN      0000850000                                                                                                                              0000
001634ULEITE 500 ML          0000530000                                                                                                                              0000
001639UCAFE ESPRESSO 200 ML  0001350000                                                                                                                              0000
001650PPAOZ BATATA/SALAME/Q. 0010290000                                                                                                                              0000
001658UPIZZA DE CALABRESA 5000005850004                                                                                                                              0000
001662UPAO CASEIRO S/LACT CON0000001040                                                                                                                              0000
009440PPAO F NAT AZEITONAS PR0005200005@50g (1 fatia)                      000520003000640002000100001000270005000000000000000000000000000*****0000*****00000200000080000
009688USUPREME DE CHURROS UND0001490000                                                                                                                              0000
009981UPANETONE FIT 400G     0003650008                                                                                                                              0000
009983UCHOCOTONE TRUFADO MFF 0006450005                                                                                                                              0000
009982UCHOCOTONE FIT 420G    0004350005                                                                                                                              0000
009984UPANETONE DOCE DE LEITE0005250005                                                                                                                              0000
009993UPETITONE FIT NA CAIXIN0002090010                                                                                                                              0000
001671UCOXINHA DE FRANGO CONG0000001040                                                                                                                              0000
001679UENROLADO DE PRES/QJO C0000001040                                                                                                                              0000
001682UFOLHADINHO DE FRANGO C0000001040                                                                                                                              0000
001687UFOLHADO DE PALMITO CON0000001040                                                                                                                              0000
001691UQUIBE CONGELADO KG    0000001040                                                                                                                              0000
001722UPAOZINHO C/CREME CONGE0000001040                                                                                                                              0000
001726PMINI QUIBE CONGELADO K0006850090                                                                                                                              0000
001727UPAO DE QUEIJO CONGELAD0000001040                                                                                                                              0000
001728PMASSA DE PAO DE QUEIJO0000001000                                                                                                                              0000
001734UEMPADA DE FRANGO CONGE0000001040                                                                                                                              0000
001735PEMPADINHA DE FRANGO CO0006350090@96 g = 03 und                      001680008002100007001000013000570010000050002000000000000110004*****0000*****00000224000090000
001736URISOLES DE CARNE CONGE0000001040                                                                                                                              0000
001750UMINI CROISSANT NATURAL0000001040                                                                                                                              0000
001758UPAO FRANCES CONGELADO 0000001040                                                                                                                              0000
007523UFATIA TORTA NINHO/ NUT0001650000                                                                                                                              0000
009994UCOOKIE FIT NATAL UND M0001850016@140g (4und)                        004150021006400021000900012001500027000770035000000000001300052*****0000*****00000087000040000
005719PPALMIER DE CHOCOLATE K0008990015                                                                                                                              0000
003782UBARRINHA PANETONE C/ C0001190060                                                                                                                              0000
009404UBOLACHINHA DA VOVO CAI0003950030                                                                                                                              0000
009405UBOMBONS NUTELLA 4UND C0001990025                                                                                                                              0000
001780UPAOZINHO DE BATATA CON0000001040                                                                                                                              0000
001789PMINI PAO DE QUEIJO CON0006990090@15 g = 05 un                       000450002000610002000000000000210004000040002000000000000100004*****0000*****00000071000030000
001807USUCO DE LARANJA 250 ML0000550000                                                                                                                              0000
001808UTODDY 200ML           0001050000                                                                                                                              0000
001906PPALMIER KG            0011390020@20g (4 unidades)                   001000005011000037001000013000540010000240011000000000000000000*****0000*****00000000000000000
001907PPINGO DE GOIABADA KG  0011590030@30g (4 unidades)                   001190006001700006000190003000500009000160007000000000000000000*****0000*****00000044000020000
001909PSEQUILHO KG           0008590060@20g (5 unidades)                   001000005017000057000700009000470009000060003000000000000000000*****0000*****00000000000000000
001911PSUSPIRO KG            0016190090@24g (10 unidades)                  001000005024000080000800011000000000000000000000000000000000000*****0000*****00000000000000000
001912PPINGO DE CANELA KG    0008700070@25g (6 unidades)                   001000005015000050001300017000330006000070003000000000000000000*****0000*****00000000000000000
001915PMINI PAO DE MEL KG    0007520010                                                                                                                              0000
006297UPORCAO FRANGO DESFIADO0000001000                                                                                                                              0000
009997UCAIXA HAPPY HOLIDAYS G0006590015                                                                                                                              0000
009998UCAIXA HAPPY HOLIDAYS M0007290015                                                                                                                              0000
009999UCAIXA HAPPY HOLIDAYS G0007990000                                                                                                                              0000
006558PPETIT FOUR DE NATAL KG0005200020                                                                                                                              0000
006576UCANECA NOEL AMANTEIGAD0002790030                                                                                                                              0000
007390UFATIA CARIBE UND      0001250000                                                                                                                              0000
010000UCREME BRANCO BROWNIECO0000001000                                                                                                                              0000
007029UPANETONE DE PISTACHE C0010300013                                                                                                                              0000
001917UCHEESE BACON UN       0002950000                                                                                                                              0000
001919PLUA DE MEL KG         0005590010@25g (3 unidades)                   001000005014000047001600021000400007000080004000000000000000000*****0000*****00000000000000000
001921UCHEESE SALADA UN      0002890000                                                                                                                              0000
001927PLASANHA QUATRO QJ C KG0004990090@45g (1 pedaço pequeno)             001500007010000033008000107000900016000400018000000000000700028*****0000*****00000000000000000
001928PPRESUNTO ROYALE SADIA 0005425004                                                                                                                              0000
001967UPAO INTEGRAL CONGELADO0000001040                                                                                                                              0000
001987UTORTA DE FRANGO CONGEL0000001040                                                                                                                              0000
006260UPORCAO CARNE SECA DESF0000001000                                                                                                                              0000
006263UPORCAO BOLONHESA      0000001000                                                                                                                              0000
008972PTORRADA PAO DE FORMA K0006890013@25 g = 10 unid                     000800004011000037002500033000000000000000000000000000000100004*****0000*****00000040000020000
008971PTORRADA PAO ITALIANO K0006890013@25 g = 10 unid                     000950005001500005000200003000280005000110005000000000000100004*****0000*****00000048000020000
001321UOLHO DE SOGRA UN      0000720000                                                                                                                              0000
006988PFATIAS HUNGARAS KG    0006690002@20g = 1 unid                       000470002000730002000100001000110002000140006000000000000000000*****0000*****00000007900000000
006035UPORCAO CARNE MOIDA PAN0000001030                                                                                                                              0000
009265UPORCAO FRANGO CROCANTE0000001030                                                                                                                              0000
009377UPANETONE PISTACHE 700G0007990013                                                                                                                              0000
001281PPETITONE C CHOCOLATE K0008500015                                                                                                                              0000
004194UCAIXA DE NATAL QUADRAD0007190015                                                                                                                              0000
005409UESFIHINHA TURCA CENTO 0022000000                                                                                                                              0000
007212UBOLACHA NATAL P NOEL  0002250040                                                                                                                              0000
001988UTORTA DE PALMITO CONGE0000001040                                                                                                                              0000
001989PEMPADINHA DE PALMITO C0006350090@96 g = 03 und                      001040005001900006000300004000150003000050002000000000000100004*****0000*****00000265000110000
001990UEMPADA DE PALMITO CONG0000001040                                                                                                                              0000
002058UMASSA BRIGADEIRO KG   0000001000                                                                                                                              0000
002060USUSPIRO P/ RECHEIOS   0000001000                                                                                                                              0000
002075UPAO DE FORMA CONGELADO0000001040                                                                                                                              0000
002079UPAO DE HAMBURGUER CONG0000001040                                                                                                                              0000
002080UPAO DE HAMBURGUER/GERG0000255000                                                                                                                              0000
002132UPANETONE MBP 500G     0004500015@80 g = 01 fatia                    002910015003900013000530007000820015000220010000000000000120005*****0000*****00000135000060000
002136PLUA DE MEL RECHEADA KG0009190035@30 g = 30und                       001180006001700006000200003000450008000130006000000000000000000*****0000*****00000057000020000
009268UPORCAO CARNE LOUCA LAN0000001030                                                                                                                              0000
009269UPORCAO BERINJELA CROCA0000001030                                                                                                                              0000
009271UPORCAO MOZARELA BUFALA0000001030                                                                                                                              0000
009272PPORCAO BACON CUBOS LAN0000001030                                                                                                                              0000
007213UBOLACHA BOTA FELIZ NAT0001500040                                                                                                                              0000
007214UBOLACHA NATAL GENG NOE0001000040                                                                                                                              0000
007215UAMANTEIGADOS C/ GENGIB0001600040                                                                                                                              0000
007216UAMANTEIGADOS DE PANETO0001600040                                                                                                                              0000
006598UTUBOLATA COM PETITONE 0003450030                                                                                                                              0000
007954UFOLHATA MORANGO CX ACR0009690000                                                                                                                              0000
002142PMORTADELA  CERATTI  LI0003125003                                                                                                                              0000
002157PPAO DE BATATA  KG     0005190004@50g (2 fatias)                     001500007032000107003700049000800015000340015000000000001300052*****0000*****00000000000000000
002158UCAFE C/LEITE 500 ML   0000450000                                                                                                                              0000
002160UPAO DE BATATA CONGELAD0000001040                                                                                                                              0000
002168PBACON TABLETE SEM PELE0001365000                                                                                                                              0000
002187UCOLOMBA TRUFADA 700G  0006690015@60g = 01 pedaço                    001800009028000093003200043000580011000270012000000000000900036*****0000*****00000100000040000
002211PPAO SIRIO KG          0006890007@50g (1 und)                        001310007025000083004000053000200004000000000000000000001000040*****0000*****00000000000000000
002218PROSQUINHA DE PINGA KG 0006690010@45g (2 unidades)                   001500007029000097003000040000220004000070003000000000000000000*****0000*****00000000000000000
002257PBAGUETE NATURAL KG    0001050091                                                                                                                              0000
007998U PORCAO BACON 40G CHAP0000001030                                                                                                                              0000
009273UPORCAO BACON FATIAS UN0000001030                                                                                                                              0000
006036UPORCAO FRANGO PARA PAN0000001030                                                                                                                              0000
000546PTORTA DE CHOCOLATE CRO0007850005                                                                                                                              0000
009282PCROSTATA PARMESAO/CHIA0009750021@90g = 1 unid                       001520008002100007000600008000450008000270012000000000000000000*****0000*****00000283000120000
009283PMINI COXINHA C SECA KG0009590001@50g = 2 unid                       001340007001400005000170002000170003000110005000000000000130005*****0000*****00000108000040000
009285PMINI CROQ QUEIJO / BAC0009590001@50g = 2 unid                       001230006001300004000160002000160003000100005000000000000100004*****0000*****00000101000040000
010013PCAKETONE KG           0000001000                                                                                                                              0000
010014UMASSA CAKETONE KG     0000001000                                                                                                                              0000
010015URECHEIO CAKETONE KG   0000001000                                                                                                                              0000
002272PMINI CROISSANT TOMATE 0007990001                                                                                                                              0000
002276USONHO DE DOCE DE LEITE0000820003@80  g = 01 und                     003690018006400021000960013000820015000270012000000000000110004*****0000*****00000109000050000
002281PNAKED CAKE RED / CREAM0009750000                                                                                                                              0000
002302PQUICHE DE BROCOLIS KG 0007950000                                                                                                                              0000
002309UCHA COM 2 ENVELOPES   0000550000                                                                                                                              0000
002310UCHOCOLATE QTE 200 ML  0000950000                                                                                                                              0000
002313UCAFE EXPRESSO/LEITE ( 0000550000                                                                                                                              0000
002345PMINI COXINHA  FRANGO C0004850090@97 g = 04 un                       001690008002600009000790011000390007000220010000000000000140006*****0000*****00000313000130000
002346PBOLINHA DE QUEIJO CONG0005190090@96 g = 04 un                       001680008001800006000830011000710013000380017000000000000140006*****0000*****00000356000150000
002347PMINI QUIBE CONGELADO K0004600090@100 g = 04 un                      001410007001900006001100015000220004000070003000000000000060002*****0000*****00000314000130000
002348PMINI RISOLES CONG. KG 0004290090@115 g = 4 und                      001990010002900010000940013000500009000250011000000000000160006*****0000*****00000356000150000
002349PTORTA DE FRANGO KG    0002690090                                                                                                                              0000
009286PCROQUETE CREMOSO DE MI0007350001@60g = 3 unid                       001040005001500005000380005000330006000150007000000000000140006*****0000*****00000230000100000
009288PCOOKIE FIT SEM GLUTEN 0010000016@25g = 1 unid                       000680003000980003000230003000260005000100005000000000000280011*****0000*****00000020000010000
009411UBOMBONS FLORES 12 UND 0005990000                                                                                                                              0000
006596PAMENDOAS / CHOCOLATE 10001690090                                                                                                                              0000
009548UAMENDOAS CH BRANCO/L N0001690000                                                                                                                              0000
010023UFATIA BROWNIE MFF UND 0001690008                                                                                                                              0000
009255UFATIA BROWNIECOOKIE MF0001690008                                                                                                                              0000
002274PMINI SONHO DOCE DE LEI0008250003                                                                                                                              0000
002351PTORTA DE PALMITO KG   0002590090                                                                                                                              0000
002363UCALDO VERDE CONG 400G 0004090090                                                                                                                              0000
002365USOPA ESLAVA CONG 400G 0003890090                                                                                                                              0000
002368PMORTADELA DEFUMADA SAD0003290003                                                                                                                              0000
002374UPRESTIGIO UN          0001090000                                                                                                                              0000
002403PMASSA FOLHADA CRUA P/ 0000001000                                                                                                                              0000
002407UPASTEL DE BELEM UN    0001250000@25 g = 1 ou 2 un                   001000005001700006000200003001200022000610028000000000000000000*****0000*****00000098000040000
002408PPAO DE MEL D.DE LEITE 0008700009@30g (1/2 und)                      001000005017000057001400019000320006000230010000000000000000000*****0000*****00000000000000000
002434PTORTA CARNE SECA KG   0008590000                                                                                                                              0000
007502UCROQUETE DE CALABRESA 0011500000                                                                                                                              0000
007631UCOXINHA DE CARNE SECA 0012000000                                                                                                                              0000
008077UCROQUETE DE QUEIJO E B0010500000                                                                                                                              0000
002275PMINI SONHO COM CREME  0008350003                                                                                                                              0000
003033PBOLO DE NATAL NOZES C/0007890004                                                                                                                              0000
003444PMINI SONHO DE GOIABADA0008250003                                                                                                                              0000
007193UPANETONE DOCE DE LEITE0006990015                                                                                                                              0000
006577UCASADINHO COLORIDO DE 0002350020                                                                                                                              0000
006557UCASADINHO NOEL UND    0000700020                                                                                                                              0000
007651UCOOKIE COBER CHOCO MFF0001350014@85g = 3 und                        002860014003800013000540007001200022000330015000000000001100044*****0000*****00000037000020000
008396UPAO DE MEL C/ D LEITE 0000890009@1und (90g)                         002920015004000013000300004000800015000600027000000000000120005*****0000*****00000000000000000
002463UTORTA DE CARNE SECA CO0000001000                                                                                                                              0000
002483UPETIT GATEAU UN       0002490000                                                                                                                              0000
002494PLASANHA BOLONHESA C KG0006290090@50 g (1 pedaço)                    001500007001400005000500007000800015000300014000000000000090004*****0000*****00000616000260000
002516PCREME DE BAUNILHA TRAD0000001000                                                                                                                              0000
002555UPAO DOCE S.FOLH.CREME/0000001000                                                                                                                              0000
002778PREQUEIJAO CATUPIRY KG 0000001000                                                                                                                              0000
007042U+ FATIA DE CHEDDAR LAN0000520000                                                                                                                              0000
009303USMOOTHIE DE FRUTAS VER0002350090                                                                                                                              0000
003938PBROA DE FUBA KG       0005150002                                                                                                                              0000
008315PBOLO DE LARANJA FIT KG0005690004@60g (1 fatia)                      000650003001600005000100001000000000000000000000000000000000000*****0000*****00000035000010000
006071PPATE ERVAS MARCO´S BP 0008800007                                                                                                                              0000
008419UIFOOD NUGGETS DE FRANG0010290000                                                                                                                              0000
009426PRABANADA RECH DOCE DE 0006950001                                                                                                                              0000
009428PRABANADA RECH CREME SO0006650001                                                                                                                              0000
009503UAMANTEIGADO CARIMB. NA0001950040                                                                                                                              0000
007635UBOLO DE NATAL NOZES C/0002800004                                                                                                                              0000
002566PPAO DOCE SEMI FOLH CR/0004690004@55g (1 und)                        001500007014000047003000040000260005000090004000000000000900036*****0000*****00000000000000000
002608PMUSSARELA  KG         0006990004@30g = 2 fatias                     000980005000000000000600008000800015000500023000000000000000000*****0000*****00000132000050000
002612UCHOCOLATE QTE CREMOSO 0001690000                                                                                                                              0000
002613UCHOCOLATE QTE CREMOSO 0001450000                                                                                                                              0000
002628UPIZZA JARDINEIRA 500G 0003990004                                                                                                                              0000
002638UPIZZA MARGUERITA 500G 0005850004                                                                                                                              0000
002640UPIZZA DE PALMITO 500G 0003990004                                                                                                                              0000
002736PPACOQUINHA CASEIRA KG 0007530010@22g (1/2 und)                      001000005012000040003300044000540010000140006000000000000800032*****0000*****00000000000000000
009314PBOLO CHOC ESPECIAL FIT0008500005@60g = 1 fatia                      001680008002500008000400005000600011000420019000000000000220009*****0000*****00000142000060000
009442PPAO RUSTICO F NAT KG  0004050004@60g (1 fatia)                      000370002000760003000100001000000000000000000000000000000000000*****0000*****00000000000000000
002791PBOL.QJO BUFALA V.CAIPI0005500000                                                                                                                              0000
002792PPALHA IT L NINHO KG   0008790025@100 g = 01 und                     001060005001700006000200003000300005001000045000000000000200008*****0000*****00000029000010000
002794PMINI FRANCES  INTEGRAL0002390002@25 g = 01 und                      000100000000200001000000000000000000000000000000000000000000000*****0000*****00000010000000000
002798PPAO FRANCES INTEGRAL K0002820002@50 g = 01 und                      000190001000390001000060001000000000000100005000000000000000000*****0000*****00000000000000000
002804UCAFE CREMOSO 200ML    0001750000                                                                                                                              0000
002805PPALHA IT NINHO/OREO KG0010890025@100 g = 01 und                     001380007002200007000290004000410007000300014000000000000000000*****0000*****00000036000010000
009356UPETIT GATEAU FIT 180G 0001650090                                                                                                                              0000
009336ULANCHE NAT DE FRANGO F0001650003@187g = 1unid                       002340012001900006001300017001300024000320015000000000000870035*****0000*****00000228000090000
009337ULANCHE NAT RICOTA FIT 0000990003@160g = 1 unid                      001780009001100004000810011000800015000500023000000000000820033*****0000*****00000233000100000
009357USLICE CAKE CENOURA/BRI0001190008@40g = 1/3 unid                     001330007002300008000200003000420008000130006000000000000130005*****0000*****00000107000040000
009358USLICE CAKE CHOC/BRIG U0000990007@40g = 1/3 unid                     001010005001300004000180002000440008000170008000000000000100004*****0000*****00000058000020000
009359PFLORZINHA DE CANELA KG0011000020@30g = 3 unid                       000990005000930003000130002000640012000330015000000000000100004*****0000*****00000038000020000
007637USPAG PESTO / T CEREJA 0002850090                                                                                                                              0000
002828PPAO DOCE CASEIRO KG   0004190004@50g (2 fatias)                     001500007007000023002800037000300005000100005000000000001200048*****0000*****00000000000000000
002829UBOLO GELADO UN        0001350000                                                                                                                              0000
002918PPALITO DE GOIABADA KG 0011590028@25g (3 unidades)                   001000005009400031001000013000300005000060003000000000000000000*****0000*****00000000000000000
009340UBOMBOM FIT DE UVA UND 0000750008@30g = 1 unid                       000910005001500005000140002000280005000190009000000000000200008*****0000*****00000027000010000
004032UPEDIDO ESPECIAL 2,00  0000200000                                                                                                                              0000
009360PBOLACHINHA DA VOVO KG 0010490030@33g = 2 unid                       001070005002200007000300004000000000000100005000000000000100004*****0000*****00000000000000000
009193PPAO CIABATTA KG       0007300003@25g = 1 fatia                      000500002001000003000140002000000000000000000000000000000000000*****0000*****00000122000050000
008447UPASTELZINHO DE CHOCOLA0015000000                                                                                                                              0000
009363PPASTELZINHO DE CHOCOLA0007000001@30g = 2 unid                       001060005001700006000200003000340006000030001000000000000100004*****0000*****00000152000060000
006972UDELICIA DE MORANGO /CR0001450000                                                                                                                              0000
002919PMOUSSE DE CHOCOLATE FI0018800015                                                                                                                              0000
002924PCUECA VIRADA KG       0005850003@52g ( 2 unidades)                  001500007006800023003500047000340006000100005000000000001100044*****0000*****00000000000000000
002941UPAO CASEIRO TRADICIONA0000001040                                                                                                                              0000
002950PPAOZ LEITE NINHO RECHE0006590003@50 G = 01 UND                      001650008002000007000370005000770014000400018000000000000100004*****0000*****00000051000020000
002961USUCO DE GOIABA UN     0000990000                                                                                                                              0000
002963USUCO DE MANGA UN      0001100000                                                                                                                              0000
